:100000000C945D000C9485000C9485000C94850084
:100010000C9485000C9485000C9485000C9485004C
:100020000C9485000C9485000C9485000C9485003C
:100030000C9485000C9485000C9485000C9485002C
:100040000C94E1030C9485000C9451040C942B0443
:100050000C9485000C9485000C9485000C9485000C
:100060000C9485000C94850000000008000201003B
:100070000003040700000000000000000000000072
:10008000250028002B0000000000240027002A0083
:10009000040404040404040402020202020203032E
:1000A0000303030301020408102040800102040836
:1000B0001020010204081020830411241FBECFEF7A
:1000C000D8E0DEBFCDBF21E0AEE2B1E001C01D92BD
:1000D000AC3EB207E1F711E0A0E0B1E0E4E1F0E10D
:1000E00002C005900D92AE32B107D9F710E0CDE510
:1000F000D0E004C02197FE010E941006CC35D10744
:10010000C9F70E94F1040C9408080C94000090E0D8
:10011000FC01EC55FF4F249180579F4FFC018491C7
:10012000882399F090E0880F991FFC01EA57FF4F50
:10013000A591B491FC01E458FF4F859194918FB73C
:10014000F894EC91E22BEC938FBF089590E0FC01C2
:10015000E859FF4F2491FC01EC55FF4F3491FC010D
:10016000E057FF4FE491EE23C9F0222339F023300A
:1001700001F1A8F4213019F1223029F1F0E0EE0F5D
:10018000FF1FE458FF4FA591B4918FB7F894EC91FD
:10019000611126C030953E233C938FBF08952730D0
:1001A000A9F02830C9F0243049F7809180008F7D74
:1001B00003C0809180008F7780938000DFCF84B56B
:1001C0008F7784BDDBCF84B58F7DFBCF8091B0006E
:1001D0008F778093B000D2CF8091B0008F7DF9CF20
:1001E0003E2BDACF1F93CF93DF93182FEB010E94A2
:1001F0008700209739F460E0812FDF91CF911F9124
:100200000C94A600CF3FD10511F461E0F5CFE12FAA
:10021000F0E0E859FF4FE491E33031F140F4E13090
:10022000B1F0E230E1F0C038D1057CF7E4CFE7303F
:1002300029F1E83059F1E430B1F780918000806213
:1002400080938000D0938B00C0938A0004C084B553
:10025000806884BDC7BDDF91CF911F91089584B59B
:10026000806284BDC8BDF7CF809180008068809394
:100270008000D0938900C0938800EDCF8091B000BA
:1002800080688093B000C093B300E5CF8091B00048
:1002900080628093B000C093B400DDCF3FB7F89484
:1002A0008091330190913401A0913501B0913601D4
:1002B00026B5A89B05C02F3F19F00196A11DB11DC1
:1002C0003FBFBA2FA92F982F8827BC01CD01620FFD
:1002D000711D811D911D42E0660F771F881F991FB8
:1002E0004A95D1F708958F929F92AF92BF92CF9285
:1002F000DF92EF92FF920E944E014B015C018CE273
:10030000C82EDD24D394E12CF12C0E944E016819F3
:1003100079098A099B09683E734081059105A8F314
:1003200021E0C21AD108E108F10888EE880E83E0C6
:10033000981EA11CB11CC114D104E104F10429F7D9
:10034000FF90EF90DF90CF90BF90AF909F908F90F5
:100350000895AF92BF92CF92DF92EF92FF920F93E8
:100360001F93CF93DF936C017B018B01040F151F4B
:10037000EB015E01AE18BF08C017D10759F06991B3
:10038000D601ED91FC910190F081E02DC601099517
:10039000892B79F7C501DF91CF911F910F91FF90C4
:1003A000EF90DF90CF90BF90AF900895FC01538DF8
:1003B000448D252F30E0842F90E0821B930B54173F
:1003C00010F0CF96089501970895FC01918D828DCC
:1003D000981761F0A28DAE0FBF2FB11D5D968C9165
:1003E000928D9F5F9F73928F90E008958FEF9FEFA4
:1003F0000895FC01918D828D981731F0828DE80F60
:10040000F11D858D90E008958FEF9FEF0895FC0119
:10041000918D228D892F90E0805C9F4F821B9109E6
:100420008F739927089587E391E00E94070221E0E6
:10043000892B09F420E0822F089580E090E0892B39
:1004400029F00E94130281110C9400000895FC0110
:10045000A48DA80FB92FB11DA35ABF4F2C91848D25
:1004600090E001968F739927848FA689B7892C9382
:10047000A089B1898C91837080648C93938D848DD5
:10048000981306C00288F389E02D80818F7D8083D8
:100490000895EF92FF920F931F93CF93DF93EC0198
:1004A00081E0888F9B8D8C8D98131AC0E889F9891B
:1004B000808185FF15C09FB7F894EE89FF8960831E
:1004C000E889F98980818370806480839FBF81E09F
:1004D00090E0DF91CF911F910F91FF90EF900895E1
:1004E000F62E0B8D10E00F5F1F4F0F731127E02EBC
:1004F0008C8D8E110CC00FB607FCFACFE889F989F4
:10050000808185FFF5CFCE010E942702F1CFEB8DD0
:10051000EC0FFD2FF11DE35AFF4FF0829FB7F894C7
:100520000B8FEA89FB8980818062CFCFCF93DF93E5
:10053000EC01888D8823B9F0AA89BB89E889F989FB
:100540008C9185FD03C0808186FD0DC00FB607FC30
:10055000F7CF8C9185FFF2CF808185FFEDCFCE0163
:100560000E942702E9CFDF91CF910895CF93DF93C7
:10057000EC0161E088810E94A60061E08A81DF9140
:10058000CF910C94A6000F931F93CF93DF93EC01B0
:1005900088819981009759F02A813B812617370776
:1005A00030F081E0DF91CF911F910F9108958B0181
:1005B0006F5F7F4F0E943B07009759F099838883B4
:1005C0001B830A832C813D81232B59F7FC01108268
:1005D000E8CF80E0E7CFEF92FF920F931F93CF9386
:1005E000DF93EC017B018A01BA010E94C3022881DA
:1005F0003981811114C02115310519F0C9010E94FA
:10060000B206198218821D821C821B821A82CE01B8
:10061000DF91CF911F910F91FF90EF9008951D836F
:100620000C83B701C9010E940108F1CF8F929F92FC
:10063000AF92BF92CF92DF92EF92FF920F931F93F0
:10064000CF93DF93CDB7DEB768970FB6F894DEBFD0
:100650000FBECDBF7C018B011C8A1B8A1E8A1D8A9E
:10066000188E1F8A4AE0CE0101966C01BC01C801B8
:100670000E94A405F60101900020E9F73197AF012F
:100680004C195D09B601CE0143960E94EB021A8215
:1006900019821C821B821E821D8242E150E068E1A9
:1006A00071E0C6010E94EB028B889C888114910442
:1006B00009F464C0AF88B88CA114B104B1F08D8185
:1006C0009E81A80EB91EB501C6010E94C3028823EF
:1006D00009F454C029813A818D819E81B401820F31
:1006E000931F0E940108BE82AD824D815E816981A7
:1006F0007A8187E391E00E94A90142E050E06BE239
:1007000071E087E391E00E94A90189819A810097B5
:1007100011F00E94B2068B899C89009711F00E940B
:10072000B206F70186819781019619F4119501951A
:100730001109101611067CF561E0F70180810E9415
:10074000A60060E0F70182810E94A600B801F701CF
:1007500084810E94F20068960FB6F894DEBF0FBE47
:10076000CDBFDF91CF911F910F91FF90EF90DF9060
:10077000CF90BF90AF909F908F90089589819A817C
:10078000009711F00E94B2061A8219821E821D8201
:100790001C821B82AACF0115110579F060E0F701D8
:1007A00080810E94A60061E0F70182810E94A6007C
:1007B00066277727601B710BCACFC7010E94B6025C
:1007C000CACF1F920F920FB60F9211242F933F930F
:1007D0008F939F93AF93BF9380912F01909130019E
:1007E000A0913101B091320130912E0123E0230F0D
:1007F0002D3758F50196A11DB11D20932E01809330
:100800002F0190933001A0933101B0933201809178
:10081000330190913401A0913501B09136010196D8
:10082000A11DB11D8093330190933401A093350134
:10083000B0933601BF91AF919F918F913F912F91CE
:100840000F900FBE0F901F90189526E8230F029669
:10085000A11DB11DD2CF1F920F920FB60F9211247E
:100860002F933F934F935F936F937F938F939F93B8
:10087000AF93BF93EF93FF9387E391E00E9427022A
:10088000FF91EF91BF91AF919F918F917F916F9168
:100890005F914F913F912F910F900FBE0F901F903E
:1008A00018951F920F920FB60F9211242F938F93CA
:1008B0009F93EF93FF93E0914701F091480180816E
:1008C000E0914D01F0914E0182FD1BC0908180911D
:1008D00050018F5F8F7320915101821741F0E09199
:1008E0005001F0E0E95CFE4F958F80935001FF913D
:1008F000EF919F918F912F910F900FBE0F901F90AE
:1009000018958081F4CF0F931F93CF93DF93E7E384
:10091000F1E01382128288EE93E0A0E0B0E08483DD
:100920009583A683B7838AE091E09183808385ECE9
:1009300090E09587848784EC90E09787868780ECA9
:1009400090E0918B808B81EC90E0938B828B82EC9A
:1009500090E0958B848B86EC90E0978B868B118E44
:10096000128E138E148ECEEDD1E088E090E0998344
:10097000888387E090E09B838A8386E090E09D8374
:100980008C830FEF1FEF1F830E8388E00E94870088
:1009900087E00E94870086E00E94870088850E9489
:1009A0008700C4EDD1E083E090E09983888384E000
:1009B00090E09B838A8385E090E09D838C831F83F6
:1009C0000E8383E00E94870084E00E94870085E018
:1009D0000E9487008885DF91CF911F910F910C9421
:1009E0008700789484B5826084BD84B5816084BDBD
:1009F00085B5826085BD85B5816085BD80916E00BD
:100A0000816080936E0010928100809181008260ED
:100A1000809381008091810081608093810080912A
:100A200080008160809380008091B1008460809319
:100A3000B1008091B00081608093B00080917A0015
:100A4000846080937A0080917A00826080937A003B
:100A500080917A00816080937A0080917A0080682A
:100A600080937A001092C100E0914701F091480113
:100A700082E08083E0914301F09144011082E09193
:100A80004501F09146018FEC808310924F01E09177
:100A90004B01F0914C0186E08083E0914901F09197
:100AA0004A01808180618083E0914901F0914A018F
:100AB000808188608083E0914901F0914A018081C2
:100AC00080688083E0914901F0914A0180818F7DA7
:100AD0008083C0E0D0E06DE770E08EED91E00E9491
:100AE00016036DE770E084ED91E00E9416030E940A
:100AF00073018EED91E00E94B60284ED91E00E94B8
:100B0000B6020E94730163E87FEF8EED91E00E94D0
:100B1000160363E87FEF84ED91E00E9416030E94C4
:100B200073018EED91E00E94B60284ED91E00E9487
:100B3000B6020E947301209771F20E94130288236B
:100B400051F20E940000C7CFBB274A3031F49923ED
:100B500022F4BDE2909581959F4F0C94B005BB2780
:100B6000FB015527AA27880F991FAA1FA41710F069
:100B7000A41B83955051B9F7A05DAA3308F0A95D75
:100B8000A193009779F7B111B1931192CB010C9415
:100B9000C905DC01FC01672F71917723E1F73297DA
:100BA00004C07C916D9370836291AE17BF07C8F348
:100BB00008952F923F924F925F926F927F928F9201
:100BC0009F92AF92BF92CF92DF92EF92FF920F93DC
:100BD0001F93CF93DF93CDB7DEB7CA1BDB0B0FB6E6
:100BE000F894DEBF0FBECDBF09942A8839884888A3
:100BF0005F846E847D848C849B84AA84B984C88439
:100C0000DF80EE80FD800C811B81AA81B981CE0F2F
:100C1000D11D0FB6F894DEBF0FBECDBFED01089514
:100C2000EE0FFF1F0590F491E02D09940F931F9391
:100C3000CF93DF938230910510F482E090E0E09151
:100C4000EA01F091EB0130E020E0B0E0A0E0309765
:100C500099F42115310509F44AC0281B390B2430B9
:100C60003105D8F58A819B816115710589F1FB01F8
:100C700093838283FE0111C04081518102811381DF
:100C800048175907E0F04817590799F4109761F091
:100C900012960C93129713961C933296CF01DF9104
:100CA000CF911F910F9108950093EA011093EB01EA
:100CB000F4CF2115310551F04217530738F0A9013F
:100CC000DB019A01BD01DF01F801C1CFEF01F9CFCE
:100CD0009093EB018093EA01CDCFFE01E20FF31F69
:100CE000819391932250310939832883D7CF209162
:100CF000E8013091E901232B41F420910201309168
:100D000003013093E9012093E80120910001309123
:100D100001012115310541F42DB73EB74091040181
:100D200050910501241B350BE091E801F091E90198
:100D3000E217F307A0F42E1B3F0B2817390778F0B2
:100D4000AC014E5F5F4F2417350748F04E0F5F1F11
:100D50005093E9014093E801819391939FCFF0E094
:100D6000E0E09CCFCF93DF930097E9F0FC0132974E
:100D700013821282A091EA01B091EB01ED0130E003
:100D800020E01097A1F420813181820F931F2091E0
:100D9000E8013091E9012817390709F061C0F093A3
:100DA000E901E093E801DF91CF910895EA01CE17C0
:100DB000DF07E8F54A815B819E0141155105B1F7D6
:100DC000E901FB83EA8349915991C40FD51FEC17C0
:100DD000FD0761F4808191810296840F951FE901DE
:100DE00099838883828193819B838A83F0E0E0E00A
:100DF00012968D919C9113970097B9F52D913C9186
:100E00001197CD010296820F931F2091E801309136
:100E1000E9012817390739F6309751F51092EB019F
:100E20001092EA01B093E901A093E801BCCFD3830B
:100E3000C28340815181840F951FC817D90761F47F
:100E40004E5F5F4F88819981480F591F51834083BE
:100E50008A819B81938382832115310509F0B0CF6C
:100E6000F093EB01E093EA019ECFFD01DC01C0CFDE
:100E700013821282D7CFB0E0A0E0E1E4F7E00C9457
:100E8000DB058C01009751F4CB010E9416068C0102
:100E9000C801CDB7DEB7E0E10C94F705FC01E60F21
:100EA000F71F9C0122503109E217F30708F49DC097
:100EB000D901CD91DC911197C617D70798F0C530AD
:100EC000D10530F3CE0104978617970708F3C61BA8
:100ED000D70B2297C193D1936D937C93CF010E943E
:100EE000B206D6CF5B01AC1ABD0A4C018C0E9D1E1A
:100EF000A091EA01B091EB01512C412CF12CE12C95
:100F0000109731F58091E8019091E90188159905D4
:100F100009F05CC04616570608F058C080910001E1
:100F200090910101009741F48DB79EB74091040163
:100F300050910501841B950BE817F90708F055C07F
:100F4000F093E901E093E801F90171836083A0CF98
:100F50008D919C91119712966C90129713967C909C
:100F60001397A815B90559F56C0142E0C40ED11CC0
:100F7000CA14DB0420F1AC014A195B09DA011296AC
:100F8000159780F06282738251834083D9016D93FB
:100F90007C93E114F10471F0D7011396FC93EE9366
:100FA000129776CF22968C0F9D1FF9019183808333
:100FB000F301EFCFF093EB01E093EA0169CF48161C
:100FC000590608F42C017D01D3019ACFCB010E9470
:100FD00016067C01009749F0AE01B8010E94F8079F
:100FE000C8010E94B206870153CF10E000E050CF45
:100FF000FB01DC0102C001900D9241505040D8F736
:101000000895FB01DC0101900D920020E1F70895A5
:04101000F894FFCF82
:101014000000EC018000000000004902A901D60193
:1010240096020702E501F90144726976696E672048
:0E10340061742073706565643A20000D0A0037
:00000001FF
